{
  "address": "0xCf7Ed3AccA5a467e9e704C703E8D87F634fB0Fc9",
  "abi": [
    {
      "inputs": [
        {
          "internalType": "uint256",
          "name": "tidiTadaFee",
          "type": "uint256"
        },
        {
          "internalType": "address",
          "name": "advertsServerAndSubscription",
          "type": "address"
        },
        {
          "internalType": "address",
          "name": "vrfCoordinatorV2",
          "type": "address"
        },
        {
          "internalType": "bytes32",
          "name": "gasLane",
          "type": "bytes32"
        },
        {
          "internalType": "uint64",
          "name": "subscriptionId",
          "type": "uint64"
        },
        {
          "internalType": "uint32",
          "name": "callbackGasLimit",
          "type": "uint32"
        },
        {
          "internalType": "uint256",
          "name": "interval",
          "type": "uint256"
        }
      ],
      "stateMutability": "nonpayable",
      "type": "constructor"
    },
    {
      "inputs": [
        {
          "internalType": "address",
          "name": "have",
          "type": "address"
        },
        {
          "internalType": "address",
          "name": "want",
          "type": "address"
        }
      ],
      "name": "OnlyCoordinatorCanFulfill",
      "type": "error"
    },
    {
      "inputs": [],
      "name": "Tiditada__AdvertsServerAndSubscriptionTransferFailed",
      "type": "error"
    },
    {
      "inputs": [],
      "name": "Tiditada__InsufficientEntranceFee",
      "type": "error"
    },
    {
      "inputs": [],
      "name": "Tiditada__NotOpen",
      "type": "error"
    },
    {
      "inputs": [],
      "name": "Tiditada__TransferToWinnerFailed",
      "type": "error"
    },
    {
      "inputs": [
        {
          "internalType": "uint256",
          "name": "currentBalance",
          "type": "uint256"
        },
        {
          "internalType": "uint256",
          "name": "numPlayers",
          "type": "uint256"
        },
        {
          "internalType": "uint256",
          "name": "tidiTadaState",
          "type": "uint256"
        }
      ],
      "name": "Tiditada__UpkeepNotNeeded",
      "type": "error"
    },
    {
      "anonymous": false,
      "inputs": [
        {
          "indexed": true,
          "internalType": "address",
          "name": "advertsServerAndSubscripton",
          "type": "address"
        }
      ],
      "name": "AdvertsServerAndSubscriptionFunded",
      "type": "event"
    },
    {
      "anonymous": false,
      "inputs": [
        {
          "indexed": true,
          "internalType": "uint256",
          "name": "requestId",
          "type": "uint256"
        }
      ],
      "name": "RequestedTidiTadaWinner",
      "type": "event"
    },
    {
      "anonymous": false,
      "inputs": [
        {
          "indexed": true,
          "internalType": "address",
          "name": "player",
          "type": "address"
        }
      ],
      "name": "TidiTadaEntered",
      "type": "event"
    },
    {
      "anonymous": false,
      "inputs": [
        {
          "indexed": true,
          "internalType": "address",
          "name": "tidiTadaWinner",
          "type": "address"
        }
      ],
      "name": "TidiTadaWinnerPicked",
      "type": "event"
    },
    {
      "inputs": [
        {
          "internalType": "bytes",
          "name": "",
          "type": "bytes"
        }
      ],
      "name": "checkUpkeep",
      "outputs": [
        {
          "internalType": "bool",
          "name": "upkeepNeeded",
          "type": "bool"
        },
        {
          "internalType": "bytes",
          "name": "",
          "type": "bytes"
        }
      ],
      "stateMutability": "view",
      "type": "function"
    },
    {
      "inputs": [],
      "name": "enterTidiTada",
      "outputs": [],
      "stateMutability": "payable",
      "type": "function"
    },
    {
      "inputs": [],
      "name": "getContractBalance",
      "outputs": [
        {
          "internalType": "uint256",
          "name": "",
          "type": "uint256"
        }
      ],
      "stateMutability": "view",
      "type": "function"
    },
    {
      "inputs": [],
      "name": "getInterval",
      "outputs": [
        {
          "internalType": "uint256",
          "name": "",
          "type": "uint256"
        }
      ],
      "stateMutability": "view",
      "type": "function"
    },
    {
      "inputs": [],
      "name": "getLastTimeStamp",
      "outputs": [
        {
          "internalType": "uint256",
          "name": "",
          "type": "uint256"
        }
      ],
      "stateMutability": "view",
      "type": "function"
    },
    {
      "inputs": [],
      "name": "getNumWords",
      "outputs": [
        {
          "internalType": "uint256",
          "name": "",
          "type": "uint256"
        }
      ],
      "stateMutability": "pure",
      "type": "function"
    },
    {
      "inputs": [],
      "name": "getNumberOfPlayers",
      "outputs": [
        {
          "internalType": "uint256",
          "name": "",
          "type": "uint256"
        }
      ],
      "stateMutability": "view",
      "type": "function"
    },
    {
      "inputs": [
        {
          "internalType": "uint256",
          "name": "index",
          "type": "uint256"
        }
      ],
      "name": "getPlayer",
      "outputs": [
        {
          "internalType": "address",
          "name": "",
          "type": "address"
        }
      ],
      "stateMutability": "view",
      "type": "function"
    },
    {
      "inputs": [],
      "name": "getRequestConfirmations",
      "outputs": [
        {
          "internalType": "uint256",
          "name": "",
          "type": "uint256"
        }
      ],
      "stateMutability": "pure",
      "type": "function"
    },
    {
      "inputs": [],
      "name": "getTidiTadaFee",
      "outputs": [
        {
          "internalType": "uint256",
          "name": "",
          "type": "uint256"
        }
      ],
      "stateMutability": "view",
      "type": "function"
    },
    {
      "inputs": [],
      "name": "getTidiTadaState",
      "outputs": [
        {
          "internalType": "enum Tiditada.TidiTadaState",
          "name": "",
          "type": "uint8"
        }
      ],
      "stateMutability": "view",
      "type": "function"
    },
    {
      "inputs": [],
      "name": "getTidiTadaWinner",
      "outputs": [
        {
          "internalType": "address",
          "name": "",
          "type": "address"
        }
      ],
      "stateMutability": "view",
      "type": "function"
    },
    {
      "inputs": [
        {
          "internalType": "bytes",
          "name": "",
          "type": "bytes"
        }
      ],
      "name": "performUpkeep",
      "outputs": [],
      "stateMutability": "nonpayable",
      "type": "function"
    },
    {
      "inputs": [
        {
          "internalType": "uint256",
          "name": "requestId",
          "type": "uint256"
        },
        {
          "internalType": "uint256[]",
          "name": "randomWords",
          "type": "uint256[]"
        }
      ],
      "name": "rawFulfillRandomWords",
      "outputs": [],
      "stateMutability": "nonpayable",
      "type": "function"
    }
  ],
  "transactionHash": "0xa7de55fe192c74159cb49d51df615d40a9da169c66405d9d49502d7471b22b02",
  "args": [
    "10000000000000000",
    "0x5FbDB2315678afecb367f032d93F642f64180aa3",
    "0x5FbDB2315678afecb367f032d93F642f64180aa3",
    "0x79d3d8832d904592c0bf9818b621522c988bb8b0c05cdc3b15aea1b6e8db0c15",
    "1",
    "500000",
    "10"
  ],
  "numDeployments": 1,
  "solcInputHash": "f3713aaffae851aeef4f7e578d4036bb",
  "bytecode": "0x6101806040523480156200001257600080fd5b5060405162001abe38038062001abe8339818101604052810190620000389190620002ca565b848073ffffffffffffffffffffffffffffffffffffffff1660808173ffffffffffffffffffffffffffffffffffffffff1681525050508660a081815250508573ffffffffffffffffffffffffffffffffffffffff166101408173ffffffffffffffffffffffffffffffffffffffff16815250508473ffffffffffffffffffffffffffffffffffffffff1660c08173ffffffffffffffffffffffffffffffffffffffff16815250508360e081815250508267ffffffffffffffff166101008167ffffffffffffffff16815250508163ffffffff166101208163ffffffff16815250508061016081815250506000600160146101000a81548160ff021916908360018111156200014b576200014a6200037d565b5b02179055504260028190555050505050505050620003ac565b600080fd5b6000819050919050565b6200017e8162000169565b81146200018a57600080fd5b50565b6000815190506200019e8162000173565b92915050565b600073ffffffffffffffffffffffffffffffffffffffff82169050919050565b6000620001d182620001a4565b9050919050565b620001e381620001c4565b8114620001ef57600080fd5b50565b6000815190506200020381620001d8565b92915050565b6000819050919050565b6200021e8162000209565b81146200022a57600080fd5b50565b6000815190506200023e8162000213565b92915050565b600067ffffffffffffffff82169050919050565b620002638162000244565b81146200026f57600080fd5b50565b600081519050620002838162000258565b92915050565b600063ffffffff82169050919050565b620002a48162000289565b8114620002b057600080fd5b50565b600081519050620002c48162000299565b92915050565b600080600080600080600060e0888a031215620002ec57620002eb62000164565b5b6000620002fc8a828b016200018d565b97505060206200030f8a828b01620001f2565b9650506040620003228a828b01620001f2565b9550506060620003358a828b016200022d565b9450506080620003488a828b0162000272565b93505060a06200035b8a828b01620002b3565b92505060c06200036e8a828b016200018d565b91505092959891949750929550565b7f4e487b7100000000000000000000000000000000000000000000000000000000600052602160045260246000fd5b60805160a05160c05160e051610100516101205161014051610160516116906200042e600039600081816106750152610727015260008181610b9c0152610c5d0152600061055d0152600061053a01526000610519015260006104dd015260008181610757015261092601526000818161036801526103bc01526116906000f3fe6080604052600436106100dd5760003560e01c806391ad27b41161007f578063e55ae4e811610059578063e55ae4e81461027e578063ebb5a317146102bb578063ee2f7811146102e6578063fd6673f514610311576100dd565b806391ad27b41461021e578063c1c244e814610249578063c2fa3fdd14610274576100dd565b806353a2c19a116100bb57806353a2c19a1461015f5780635f1b0fd81461018a5780636e04ff0d146101b55780636f9fb98a146101f3576100dd565b8063033eeabb146100e25780631fe543e31461010d5780634585e33b14610136575b600080fd5b3480156100ee57600080fd5b506100f761033c565b6040516101049190610dae565b60405180910390f35b34801561011957600080fd5b50610134600480360381019061012f9190610f6c565b610366565b005b34801561014257600080fd5b5061015d60048036038101906101589190611023565b610426565b005b34801561016b57600080fd5b50610174610616565b604051610181919061107f565b60405180910390f35b34801561019657600080fd5b5061019f610625565b6040516101ac919061107f565b60405180910390f35b3480156101c157600080fd5b506101dc60048036038101906101d7919061114f565b610632565b6040516101ea92919061123b565b60405180910390f35b3480156101ff57600080fd5b5061020861071b565b604051610215919061107f565b60405180910390f35b34801561022a57600080fd5b50610233610723565b604051610240919061107f565b60405180910390f35b34801561025557600080fd5b5061025e61074b565b60405161026b919061107f565b60405180910390f35b61027c610755565b005b34801561028a57600080fd5b506102a560048036038101906102a0919061126b565b6108c4565b6040516102b29190610dae565b60405180910390f35b3480156102c757600080fd5b506102d061090b565b6040516102dd919061130f565b60405180910390f35b3480156102f257600080fd5b506102fb610922565b604051610308919061107f565b60405180910390f35b34801561031d57600080fd5b5061032661094a565b604051610333919061107f565b60405180910390f35b6000600160009054906101000a900473ffffffffffffffffffffffffffffffffffffffff16905090565b7f000000000000000000000000000000000000000000000000000000000000000073ffffffffffffffffffffffffffffffffffffffff163373ffffffffffffffffffffffffffffffffffffffff161461041857337f00000000000000000000000000000000000000000000000000000000000000006040517f1cf993f400000000000000000000000000000000000000000000000000000000815260040161040f92919061132a565b60405180910390fd5b6104228282610956565b5050565b600061044060405180602001604052806000815250610632565b509050806104af5747600080549050600160149054906101000a900460ff16600181111561047157610470611298565b5b6040517f9546afe10000000000000000000000000000000000000000000000000000000081526004016104a693929190611353565b60405180910390fd5b60018060146101000a81548160ff021916908360018111156104d4576104d3611298565b5b021790555060007f000000000000000000000000000000000000000000000000000000000000000073ffffffffffffffffffffffffffffffffffffffff16635d3b1d307f00000000000000000000000000000000000000000000000000000000000000007f000000000000000000000000000000000000000000000000000000000000000060037f000000000000000000000000000000000000000000000000000000000000000060016040518663ffffffff1660e01b815260040161059e959493929190611402565b6020604051808303816000875af11580156105bd573d6000803e3d6000fd5b505050506040513d601f19601f820116820180604052508101906105e1919061146a565b9050807f53b5c03dd4cbfb3bf7591428b5e0a7ae0b7d62c33bb2b23bbc35f516711fc4bc60405160405180910390a250505050565b6000600163ffffffff16905090565b6000600361ffff16905090565b600060606000600160149054906101000a900460ff16600181111561065a57610659611298565b5b6000600181111561066e5761066d611298565b5b14905060007f0000000000000000000000000000000000000000000000000000000000000000600254426106a291906114c6565b11905060006009600080549050119050600080471190508280156106c35750835b80156106cc5750805b80156106d55750815b9550856040518060400160405280600381526020017f30783000000000000000000000000000000000000000000000000000000000008152509550955050505050915091565b600047905090565b60007f0000000000000000000000000000000000000000000000000000000000000000905090565b6000600254905090565b7f00000000000000000000000000000000000000000000000000000000000000003410156107af576040517f1f6d941100000000000000000000000000000000000000000000000000000000815260040160405180910390fd5b600060018111156107c3576107c2611298565b5b600160149054906101000a900460ff1660018111156107e5576107e4611298565b5b1461081c576040517fdc59d58b00000000000000000000000000000000000000000000000000000000815260040160405180910390fd5b6000339080600181540180825580915050600190039060005260206000200160009091909190916101000a81548173ffffffffffffffffffffffffffffffffffffffff021916908373ffffffffffffffffffffffffffffffffffffffff1602179055503373ffffffffffffffffffffffffffffffffffffffff167fae5cc53056904578d0e9a0d41fbfc5c7c7703be3394c3938279bc04229dcf97560405160405180910390a2565b60008082815481106108d9576108d86114fa565b5b9060005260206000200160009054906101000a900473ffffffffffffffffffffffffffffffffffffffff169050919050565b6000600160149054906101000a900460ff16905090565b60007f0000000000000000000000000000000000000000000000000000000000000000905090565b60008080549050905090565b6000808054905082600081518110610971576109706114fa565b5b60200260200101516109839190611558565b9050600080828154811061099a576109996114fa565b5b9060005260206000200160009054906101000a900473ffffffffffffffffffffffffffffffffffffffff16905080600160006101000a81548173ffffffffffffffffffffffffffffffffffffffff021916908373ffffffffffffffffffffffffffffffffffffffff160217905550600067ffffffffffffffff811115610a2357610a22610e29565b5b604051908082528060200260200182016040528015610a515781602001602082028036833780820191505090505b5060009080519060200190610a67929190610cc6565b506000600160146101000a81548160ff02191690836001811115610a8e57610a8d611298565b5b02179055504260028190555060008173ffffffffffffffffffffffffffffffffffffffff166064605647610ac29190611589565b610acc91906115e3565b604051610ad890611645565b60006040518083038185875af1925050503d8060008114610b15576040519150601f19603f3d011682016040523d82523d6000602084013e610b1a565b606091505b5050905080610b55576040517f27d7ff6100000000000000000000000000000000000000000000000000000000815260040160405180910390fd5b8173ffffffffffffffffffffffffffffffffffffffff167fdb013674fee72403800a396aadc0cc3d085bedab5b36d0095bd379b5f13a361360405160405180910390a260007f000000000000000000000000000000000000000000000000000000000000000073ffffffffffffffffffffffffffffffffffffffff1647604051610bde90611645565b60006040518083038185875af1925050503d8060008114610c1b576040519150601f19603f3d011682016040523d82523d6000602084013e610c20565b606091505b5050905080610c5b576040517f5a11556800000000000000000000000000000000000000000000000000000000815260040160405180910390fd5b7f000000000000000000000000000000000000000000000000000000000000000073ffffffffffffffffffffffffffffffffffffffff167f6a4787cec966a624b4aafa4021e0af934a2cd24c87b7f2f23489d2649ad6eb0060405160405180910390a2505050505050565b828054828255906000526020600020908101928215610d3f579160200282015b82811115610d3e5782518260006101000a81548173ffffffffffffffffffffffffffffffffffffffff021916908373ffffffffffffffffffffffffffffffffffffffff16021790555091602001919060010190610ce6565b5b509050610d4c9190610d50565b5090565b5b80821115610d69576000816000905550600101610d51565b5090565b600073ffffffffffffffffffffffffffffffffffffffff82169050919050565b6000610d9882610d6d565b9050919050565b610da881610d8d565b82525050565b6000602082019050610dc36000830184610d9f565b92915050565b6000604051905090565b600080fd5b600080fd5b6000819050919050565b610df081610ddd565b8114610dfb57600080fd5b50565b600081359050610e0d81610de7565b92915050565b600080fd5b6000601f19601f8301169050919050565b7f4e487b7100000000000000000000000000000000000000000000000000000000600052604160045260246000fd5b610e6182610e18565b810181811067ffffffffffffffff82111715610e8057610e7f610e29565b5b80604052505050565b6000610e93610dc9565b9050610e9f8282610e58565b919050565b600067ffffffffffffffff821115610ebf57610ebe610e29565b5b602082029050602081019050919050565b600080fd5b6000610ee8610ee384610ea4565b610e89565b90508083825260208201905060208402830185811115610f0b57610f0a610ed0565b5b835b81811015610f345780610f208882610dfe565b845260208401935050602081019050610f0d565b5050509392505050565b600082601f830112610f5357610f52610e13565b5b8135610f63848260208601610ed5565b91505092915050565b60008060408385031215610f8357610f82610dd3565b5b6000610f9185828601610dfe565b925050602083013567ffffffffffffffff811115610fb257610fb1610dd8565b5b610fbe85828601610f3e565b9150509250929050565b600080fd5b60008083601f840112610fe357610fe2610e13565b5b8235905067ffffffffffffffff81111561100057610fff610fc8565b5b60208301915083600182028301111561101c5761101b610ed0565b5b9250929050565b6000806020838503121561103a57611039610dd3565b5b600083013567ffffffffffffffff81111561105857611057610dd8565b5b61106485828601610fcd565b92509250509250929050565b61107981610ddd565b82525050565b60006020820190506110946000830184611070565b92915050565b600080fd5b600067ffffffffffffffff8211156110ba576110b9610e29565b5b6110c382610e18565b9050602081019050919050565b82818337600083830152505050565b60006110f26110ed8461109f565b610e89565b90508281526020810184848401111561110e5761110d61109a565b5b6111198482856110d0565b509392505050565b600082601f83011261113657611135610e13565b5b81356111468482602086016110df565b91505092915050565b60006020828403121561116557611164610dd3565b5b600082013567ffffffffffffffff81111561118357611182610dd8565b5b61118f84828501611121565b91505092915050565b60008115159050919050565b6111ad81611198565b82525050565b600081519050919050565b600082825260208201905092915050565b60005b838110156111ed5780820151818401526020810190506111d2565b838111156111fc576000848401525b50505050565b600061120d826111b3565b61121781856111be565b93506112278185602086016111cf565b61123081610e18565b840191505092915050565b600060408201905061125060008301856111a4565b81810360208301526112628184611202565b90509392505050565b60006020828403121561128157611280610dd3565b5b600061128f84828501610dfe565b91505092915050565b7f4e487b7100000000000000000000000000000000000000000000000000000000600052602160045260246000fd5b600281106112d8576112d7611298565b5b50565b60008190506112e9826112c7565b919050565b60006112f9826112db565b9050919050565b611309816112ee565b82525050565b60006020820190506113246000830184611300565b92915050565b600060408201905061133f6000830185610d9f565b61134c6020830184610d9f565b9392505050565b60006060820190506113686000830186611070565b6113756020830185611070565b6113826040830184611070565b949350505050565b6000819050919050565b61139d8161138a565b82525050565b600067ffffffffffffffff82169050919050565b6113c0816113a3565b82525050565b600061ffff82169050919050565b6113dd816113c6565b82525050565b600063ffffffff82169050919050565b6113fc816113e3565b82525050565b600060a0820190506114176000830188611394565b61142460208301876113b7565b61143160408301866113d4565b61143e60608301856113f3565b61144b60808301846113f3565b9695505050505050565b60008151905061146481610de7565b92915050565b6000602082840312156114805761147f610dd3565b5b600061148e84828501611455565b91505092915050565b7f4e487b7100000000000000000000000000000000000000000000000000000000600052601160045260246000fd5b60006114d182610ddd565b91506114dc83610ddd565b9250828210156114ef576114ee611497565b5b828203905092915050565b7f4e487b7100000000000000000000000000000000000000000000000000000000600052603260045260246000fd5b7f4e487b7100000000000000000000000000000000000000000000000000000000600052601260045260246000fd5b600061156382610ddd565b915061156e83610ddd565b92508261157e5761157d611529565b5b828206905092915050565b600061159482610ddd565b915061159f83610ddd565b9250817fffffffffffffffffffffffffffffffffffffffffffffffffffffffffffffffff04831182151516156115d8576115d7611497565b5b828202905092915050565b60006115ee82610ddd565b91506115f983610ddd565b92508261160957611608611529565b5b828204905092915050565b600081905092915050565b50565b600061162f600083611614565b915061163a8261161f565b600082019050919050565b600061165082611622565b915081905091905056fea2646970667358221220e388f4de4363a5df4fbcc8e3f15d883cbbf6e7de73c4c91e6d9dc6c2cab1d32c64736f6c634300080e0033",
  "devdoc": {
    "author": "Vanga Labs",
    "details": "It implements Chainlink VRF V2 && Chainlink Keepers",
    "kind": "dev",
    "methods": {
      "checkUpkeep(bytes)": {
        "details": "This is the function that the Chainlink Automation nodes call. they constantly watch predefined conditions that must be met for `upkeepNeeded` to return 'true'. the following should be true for this function to perform 'upKeep': 1. The time interval (7 days) has passed between Tiditada runs. 2. The Tiditada Raffle  is open. 3. The contract has funds. 4. The number of players should be > 9 5. Implicity, this Automation node is funded with LINK tokens and these tokens are deducted each time an upKeep is performed."
      },
      "enterTidiTada()": {
        "details": "This functions performs three (3) tasks 1. It ascertains if the msg.value is less than the tidiTadaFee and reverts with an error; 2. It lso checks if the state of the tidiTada raffle is open. If not open, it also reverts with and error. 3.  Finally, it funds the contract if both conditions above are true, and emits and event. These event are indexed using the Moralis Server, to give playres real-time status if the tidiTada Raffle."
      },
      "performUpkeep(bytes)": {
        "details": "This is the function that performs upKeep, it checks if 'upKeepNeeded' is true, it reverts with an error if upKeep is not needed. However, it perfoms the following if upKeep is needed: 1. It changes the state of the tidiTada Raffle to calculating thus making it impossible for new players to join during computation 2. It emits an event with the tidiTada Chainlink VRF parameters as paylod. This helps the chainlink nodes to identify the particular smart contract that is requesting a random number which will be used to pick a random winner.  "
      }
    },
    "stateVariables": {
      "i_advertsServerAndSubscription": {
        "details": "This variable holds the address for Chainlink Keepers and VRF subscriptions Payments for Moralis Server for Indexing and Frontend Essehtials Payments for Influencer marketing for a wider reach Currently pegged at 12% of total prize money but is subject to downward review as number of players increase Watch out for our DAO token updates to participate in voting for Improvement proposals and other future events"
      }
    },
    "title": "Tiditada Raffle Contract",
    "version": 1
  },
  "userdoc": {
    "kind": "user",
    "methods": {},
    "notice": "This contract creates a decentralized, transparent and borderless Raffle Contract",
    "version": 1
  },
  "storageLayout": {
    "storage": [
      {
        "astId": 200,
        "contract": "contracts/Tiditada.sol:Tiditada",
        "label": "s_players",
        "offset": 0,
        "slot": "0",
        "type": "t_array(t_address_payable)dyn_storage"
      },
      {
        "astId": 226,
        "contract": "contracts/Tiditada.sol:Tiditada",
        "label": "s_tidiTadaWinner",
        "offset": 0,
        "slot": "1",
        "type": "t_address"
      },
      {
        "astId": 229,
        "contract": "contracts/Tiditada.sol:Tiditada",
        "label": "s_tidiTadaState",
        "offset": 20,
        "slot": "1",
        "type": "t_enum(TidiTadaState)195"
      },
      {
        "astId": 231,
        "contract": "contracts/Tiditada.sol:Tiditada",
        "label": "s_lastTimeStamp",
        "offset": 0,
        "slot": "2",
        "type": "t_uint256"
      }
    ],
    "types": {
      "t_address": {
        "encoding": "inplace",
        "label": "address",
        "numberOfBytes": "20"
      },
      "t_address_payable": {
        "encoding": "inplace",
        "label": "address payable",
        "numberOfBytes": "20"
      },
      "t_array(t_address_payable)dyn_storage": {
        "base": "t_address_payable",
        "encoding": "dynamic_array",
        "label": "address payable[]",
        "numberOfBytes": "32"
      },
      "t_enum(TidiTadaState)195": {
        "encoding": "inplace",
        "label": "enum Tiditada.TidiTadaState",
        "numberOfBytes": "1"
      },
      "t_uint256": {
        "encoding": "inplace",
        "label": "uint256",
        "numberOfBytes": "32"
      }
    }
  }
}