{
    "address": "0xCf7Ed3AccA5a467e9e704C703E8D87F634fB0Fc9",
    "abi": [
        {
            "inputs": [
                {
                    "internalType": "address",
                    "name": "vrfCoordinatorV2",
                    "type": "address"
                },
                {
                    "internalType": "uint256",
                    "name": "tidiTadaFee",
                    "type": "uint256"
                },
                {
                    "internalType": "address",
                    "name": "advertsServerAndSubscription",
                    "type": "address"
                },
                {
                    "internalType": "bytes32",
                    "name": "gasLane",
                    "type": "bytes32"
                },
                {
                    "internalType": "uint64",
                    "name": "subscriptionId",
                    "type": "uint64"
                },
                {
                    "internalType": "uint32",
                    "name": "callbackGasLimit",
                    "type": "uint32"
                },
                {
                    "internalType": "uint256",
                    "name": "interval",
                    "type": "uint256"
                }
            ],
            "stateMutability": "nonpayable",
            "type": "constructor"
        },
        {
            "inputs": [
                {
                    "internalType": "address",
                    "name": "have",
                    "type": "address"
                },
                {
                    "internalType": "address",
                    "name": "want",
                    "type": "address"
                }
            ],
            "name": "OnlyCoordinatorCanFulfill",
            "type": "error"
        },
        {
            "inputs": [],
            "name": "Tiditada__AdvertsServerAndSubscriptionTransferFailed",
            "type": "error"
        },
        {
            "inputs": [],
            "name": "Tiditada__InsufficientEntranceFee",
            "type": "error"
        },
        {
            "inputs": [],
            "name": "Tiditada__NotOpen",
            "type": "error"
        },
        {
            "inputs": [],
            "name": "Tiditada__TransferToWinnerFailed",
            "type": "error"
        },
        {
            "inputs": [
                {
                    "internalType": "uint256",
                    "name": "currentBalance",
                    "type": "uint256"
                },
                {
                    "internalType": "uint256",
                    "name": "numPlayers",
                    "type": "uint256"
                },
                {
                    "internalType": "uint256",
                    "name": "tidiTadaState",
                    "type": "uint256"
                }
            ],
            "name": "Tiditada__UpkeepNotNeeded",
            "type": "error"
        },
        {
            "anonymous": false,
            "inputs": [
                {
                    "indexed": true,
                    "internalType": "address",
                    "name": "advertsServerAndSubscripton",
                    "type": "address"
                }
            ],
            "name": "AdvertsServerAndSubscriptionFunded",
            "type": "event"
        },
        {
            "anonymous": false,
            "inputs": [
                {
                    "indexed": true,
                    "internalType": "uint256",
                    "name": "requestId",
                    "type": "uint256"
                }
            ],
            "name": "RequestedTidiTadaWinner",
            "type": "event"
        },
        {
            "anonymous": false,
            "inputs": [
                {
                    "indexed": true,
                    "internalType": "address",
                    "name": "player",
                    "type": "address"
                }
            ],
            "name": "TidiTadaEntered",
            "type": "event"
        },
        {
            "anonymous": false,
            "inputs": [
                {
                    "indexed": true,
                    "internalType": "address",
                    "name": "tidiTadaWinner",
                    "type": "address"
                }
            ],
            "name": "TidiTadaWinnerPicked",
            "type": "event"
        },
        {
            "inputs": [
                {
                    "internalType": "bytes",
                    "name": "",
                    "type": "bytes"
                }
            ],
            "name": "checkUpkeep",
            "outputs": [
                {
                    "internalType": "bool",
                    "name": "upkeepNeeded",
                    "type": "bool"
                },
                {
                    "internalType": "bytes",
                    "name": "",
                    "type": "bytes"
                }
            ],
            "stateMutability": "view",
            "type": "function"
        },
        {
            "inputs": [],
            "name": "enterTiditada",
            "outputs": [],
            "stateMutability": "payable",
            "type": "function"
        },
        {
            "inputs": [],
            "name": "getInterval",
            "outputs": [
                {
                    "internalType": "uint256",
                    "name": "",
                    "type": "uint256"
                }
            ],
            "stateMutability": "view",
            "type": "function"
        },
        {
            "inputs": [],
            "name": "getLastTimeStamp",
            "outputs": [
                {
                    "internalType": "uint256",
                    "name": "",
                    "type": "uint256"
                }
            ],
            "stateMutability": "view",
            "type": "function"
        },
        {
            "inputs": [],
            "name": "getNumWords",
            "outputs": [
                {
                    "internalType": "uint256",
                    "name": "",
                    "type": "uint256"
                }
            ],
            "stateMutability": "pure",
            "type": "function"
        },
        {
            "inputs": [],
            "name": "getNumberOfPlayers",
            "outputs": [
                {
                    "internalType": "uint256",
                    "name": "",
                    "type": "uint256"
                }
            ],
            "stateMutability": "view",
            "type": "function"
        },
        {
            "inputs": [
                {
                    "internalType": "uint256",
                    "name": "index",
                    "type": "uint256"
                }
            ],
            "name": "getPlayer",
            "outputs": [
                {
                    "internalType": "address",
                    "name": "",
                    "type": "address"
                }
            ],
            "stateMutability": "view",
            "type": "function"
        },
        {
            "inputs": [],
            "name": "getRequestConfirmations",
            "outputs": [
                {
                    "internalType": "uint256",
                    "name": "",
                    "type": "uint256"
                }
            ],
            "stateMutability": "pure",
            "type": "function"
        },
        {
            "inputs": [],
            "name": "getTidiTadaFee",
            "outputs": [
                {
                    "internalType": "uint256",
                    "name": "",
                    "type": "uint256"
                }
            ],
            "stateMutability": "view",
            "type": "function"
        },
        {
            "inputs": [],
            "name": "getTidiTadaState",
            "outputs": [
                {
                    "internalType": "enum Tiditada.TidiTadaState",
                    "name": "",
                    "type": "uint8"
                }
            ],
            "stateMutability": "view",
            "type": "function"
        },
        {
            "inputs": [],
            "name": "getTidiTadaWinner",
            "outputs": [
                {
                    "internalType": "address",
                    "name": "",
                    "type": "address"
                }
            ],
            "stateMutability": "view",
            "type": "function"
        },
        {
            "inputs": [
                {
                    "internalType": "bytes",
                    "name": "",
                    "type": "bytes"
                }
            ],
            "name": "performUpkeep",
            "outputs": [],
            "stateMutability": "nonpayable",
            "type": "function"
        },
        {
            "inputs": [
                {
                    "internalType": "uint256",
                    "name": "requestId",
                    "type": "uint256"
                },
                {
                    "internalType": "uint256[]",
                    "name": "randomWords",
                    "type": "uint256[]"
                }
            ],
            "name": "rawFulfillRandomWords",
            "outputs": [],
            "stateMutability": "nonpayable",
            "type": "function"
        }
    ],
    "transactionHash": "0xeae2d8d97d7088e1cb5cbb2d8dc73df9ec59086387fdc803821fa6d4fb0dee21",
    "args": [
        "0x5FbDB2315678afecb367f032d93F642f64180aa3",
        "10000000000000000",
        "0x5FbDB2315678afecb367f032d93F642f64180aa3",
        "0x79d3d8832d904592c0bf9818b621522c988bb8b0c05cdc3b15aea1b6e8db0c15",
        "1",
        "30",
        "500000"
    ],
    "numDeployments": 1,
    "solcInputHash": "816b857054ec6298f8c5295348ef0802",
    "bytecode": "0x6101806040523480156200001257600080fd5b5060405162001ae838038062001ae88339818101604052810190620000389190620001e6565b868073ffffffffffffffffffffffffffffffffffffffff1660808173ffffffffffffffffffffffffffffffffffffffff1660601b81525050508560a081815250508473ffffffffffffffffffffffffffffffffffffffff166101408173ffffffffffffffffffffffffffffffffffffffff1660601b815250508673ffffffffffffffffffffffffffffffffffffffff1660c08173ffffffffffffffffffffffffffffffffffffffff1660601b815250508360e081815250508267ffffffffffffffff166101008167ffffffffffffffff1660c01b815250508163ffffffff166101208163ffffffff1660e01b815250506000600160146101000a81548160ff0219169083600181111562000151576200015062000305565b5b02179055504260028190555080610160818152505050505050505050620003bb565b600081519050620001848162000339565b92915050565b6000815190506200019b8162000353565b92915050565b600081519050620001b2816200036d565b92915050565b600081519050620001c98162000387565b92915050565b600081519050620001e081620003a1565b92915050565b600080600080600080600060e0888a03121562000208576200020762000334565b5b6000620002188a828b0162000173565b97505060206200022b8a828b01620001a1565b96505060406200023e8a828b0162000173565b9550506060620002518a828b016200018a565b9450506080620002648a828b01620001cf565b93505060a0620002778a828b01620001b8565b92505060c06200028a8a828b01620001a1565b91505092959891949750929550565b6000620002a682620002b7565b9050919050565b6000819050919050565b600073ffffffffffffffffffffffffffffffffffffffff82169050919050565b6000819050919050565b600063ffffffff82169050919050565b600067ffffffffffffffff82169050919050565b7f4e487b7100000000000000000000000000000000000000000000000000000000600052602160045260246000fd5b600080fd5b620003448162000299565b81146200035057600080fd5b50565b6200035e81620002ad565b81146200036a57600080fd5b50565b6200037881620002d7565b81146200038457600080fd5b50565b6200039281620002e1565b81146200039e57600080fd5b50565b620003ac81620002f1565b8114620003b857600080fd5b50565b60805160601c60a05160c05160601c60e0516101005160c01c6101205160e01c6101405160601c6101605161169c6200044c600039600081816107ad0152610858015260008181610b5e0152610c1f01526000610517015260006104f4015260006104d3015260006104970152600081816105fd01526108e80152600081816103220152610376015261169c6000f3fe6080604052600436106100c25760003560e01c80636e04ff0d1161007f578063e55ae4e811610059578063e55ae4e814610238578063ebb5a31714610275578063ee2f7811146102a0578063fd6673f5146102cb576100c2565b80636e04ff0d146101a457806391ad27b4146101e2578063c1c244e81461020d576100c2565b8063033eeabb146100c75780631fe543e3146100f25780634585e33b1461011b57806353a2c19a146101445780635f1b0fd81461016f57806368a456be1461019a575b600080fd5b3480156100d357600080fd5b506100dc6102f6565b6040516100e99190611135565b60405180910390f35b3480156100fe57600080fd5b5061011960048036038101906101149190610ff0565b610320565b005b34801561012757600080fd5b50610142600480360381019061013d9190610f00565b6103e0565b005b34801561015057600080fd5b506101596105df565b6040516101669190611217565b60405180910390f35b34801561017b57600080fd5b506101846105ee565b6040516101919190611217565b60405180910390f35b6101a26105fb565b005b3480156101b057600080fd5b506101cb60048036038101906101c69190610f4d565b61076a565b6040516101d9929190611179565b60405180910390f35b3480156101ee57600080fd5b506101f7610854565b6040516102049190611217565b60405180910390f35b34801561021957600080fd5b5061022261087c565b60405161022f9190611217565b60405180910390f35b34801561024457600080fd5b5061025f600480360381019061025a9190610f96565b610886565b60405161026c9190611135565b60405180910390f35b34801561028157600080fd5b5061028a6108cd565b60405161029791906111fc565b60405180910390f35b3480156102ac57600080fd5b506102b56108e4565b6040516102c29190611217565b60405180910390f35b3480156102d757600080fd5b506102e061090c565b6040516102ed9190611217565b60405180910390f35b6000600160009054906101000a900473ffffffffffffffffffffffffffffffffffffffff16905090565b7f000000000000000000000000000000000000000000000000000000000000000073ffffffffffffffffffffffffffffffffffffffff163373ffffffffffffffffffffffffffffffffffffffff16146103d257337f00000000000000000000000000000000000000000000000000000000000000006040517f1cf993f40000000000000000000000000000000000000000000000000000000081526004016103c9929190611150565b60405180910390fd5b6103dc8282610918565b5050565b60006103fa6040518060200160405280600081525061076a565b509050806104695747600080549050600160149054906101000a900460ff16600181111561042b5761042a61157c565b5b6040517f9546afe100000000000000000000000000000000000000000000000000000000815260040161046093929190611232565b60405180910390fd5b60018060146101000a81548160ff0219169083600181111561048e5761048d61157c565b5b021790555060007f000000000000000000000000000000000000000000000000000000000000000073ffffffffffffffffffffffffffffffffffffffff16635d3b1d307f00000000000000000000000000000000000000000000000000000000000000007f000000000000000000000000000000000000000000000000000000000000000060037f000000000000000000000000000000000000000000000000000000000000000060016040518663ffffffff1660e01b81526004016105589594939291906111a9565b602060405180830381600087803b15801561057257600080fd5b505af1158015610586573d6000803e3d6000fd5b505050506040513d601f19601f820116820180604052508101906105aa9190610fc3565b9050807f53b5c03dd4cbfb3bf7591428b5e0a7ae0b7d62c33bb2b23bbc35f516711fc4bc60405160405180910390a250505050565b6000600163ffffffff16905090565b6000600361ffff16905090565b7f0000000000000000000000000000000000000000000000000000000000000000341015610655576040517f1f6d941100000000000000000000000000000000000000000000000000000000815260040160405180910390fd5b600060018111156106695761066861157c565b5b600160149054906101000a900460ff16600181111561068b5761068a61157c565b5b146106c2576040517fdc59d58b00000000000000000000000000000000000000000000000000000000815260040160405180910390fd5b6000339080600181540180825580915050600190039060005260206000200160009091909190916101000a81548173ffffffffffffffffffffffffffffffffffffffff021916908373ffffffffffffffffffffffffffffffffffffffff1602179055503373ffffffffffffffffffffffffffffffffffffffff167fae5cc53056904578d0e9a0d41fbfc5c7c7703be3394c3938279bc04229dcf97560405160405180910390a2565b600060606000600160149054906101000a900460ff1660018111156107925761079161157c565b5b600060018111156107a6576107a561157c565b5b14905060007f0000000000000000000000000000000000000000000000000000000000000000600254426107da919061139d565b1190506000600a60008054905010159050600080471190508280156107fc5750835b80156108055750805b801561080e5750815b9550856040518060400160405280600381526020017f30783000000000000000000000000000000000000000000000000000000000008152509550955050505050915091565b60007f0000000000000000000000000000000000000000000000000000000000000000905090565b6000600254905090565b600080828154811061089b5761089a6115ab565b5b9060005260206000200160009054906101000a900473ffffffffffffffffffffffffffffffffffffffff169050919050565b6000600160149054906101000a900460ff16905090565b60007f0000000000000000000000000000000000000000000000000000000000000000905090565b60008080549050905090565b6000808054905082600081518110610933576109326115ab565b5b602002602001015161094591906114ed565b9050600080828154811061095c5761095b6115ab565b5b9060005260206000200160009054906101000a900473ffffffffffffffffffffffffffffffffffffffff16905080600160006101000a81548173ffffffffffffffffffffffffffffffffffffffff021916908373ffffffffffffffffffffffffffffffffffffffff160217905550600067ffffffffffffffff8111156109e5576109e46115da565b5b604051908082528060200260200182016040528015610a135781602001602082028036833780820191505090505b5060009080519060200190610a29929190610ccb565b506000600160146101000a81548160ff02191690836001811115610a5057610a4f61157c565b5b02179055504260028190555060008173ffffffffffffffffffffffffffffffffffffffff1660646057610a839190611312565b47610a8e9190611343565b604051610a9a90611120565b60006040518083038185875af1925050503d8060008114610ad7576040519150601f19603f3d011682016040523d82523d6000602084013e610adc565b606091505b5050905080610b17576040517f27d7ff6100000000000000000000000000000000000000000000000000000000815260040160405180910390fd5b8173ffffffffffffffffffffffffffffffffffffffff167fdb013674fee72403800a396aadc0cc3d085bedab5b36d0095bd379b5f13a361360405160405180910390a260007f000000000000000000000000000000000000000000000000000000000000000073ffffffffffffffffffffffffffffffffffffffff1647604051610ba090611120565b60006040518083038185875af1925050503d8060008114610bdd576040519150601f19603f3d011682016040523d82523d6000602084013e610be2565b606091505b5050905080610c1d576040517f5a11556800000000000000000000000000000000000000000000000000000000815260040160405180910390fd5b7f000000000000000000000000000000000000000000000000000000000000000073ffffffffffffffffffffffffffffffffffffffff167f6a4787cec966a624b4aafa4021e0af934a2cd24c87b7f2f23489d2649ad6eb0060405160405180910390a28273ffffffffffffffffffffffffffffffffffffffff167fdb013674fee72403800a396aadc0cc3d085bedab5b36d0095bd379b5f13a361360405160405180910390a2505050505050565b828054828255906000526020600020908101928215610d44579160200282015b82811115610d435782518260006101000a81548173ffffffffffffffffffffffffffffffffffffffff021916908373ffffffffffffffffffffffffffffffffffffffff16021790555091602001919060010190610ceb565b5b509050610d519190610d55565b5090565b5b80821115610d6e576000816000905550600101610d56565b5090565b6000610d85610d808461128e565b611269565b90508083825260208201905082856020860282011115610da857610da7611613565b5b60005b85811015610dd85781610dbe8882610ed6565b845260208401935060208301925050600181019050610dab565b5050509392505050565b6000610df5610df0846112ba565b611269565b905082815260208101848484011115610e1157610e10611618565b5b610e1c84828561147a565b509392505050565b600082601f830112610e3957610e3861160e565b5b8135610e49848260208601610d72565b91505092915050565b60008083601f840112610e6857610e6761160e565b5b8235905067ffffffffffffffff811115610e8557610e84611609565b5b602083019150836001820283011115610ea157610ea0611613565b5b9250929050565b600082601f830112610ebd57610ebc61160e565b5b8135610ecd848260208601610de2565b91505092915050565b600081359050610ee58161164f565b92915050565b600081519050610efa8161164f565b92915050565b60008060208385031215610f1757610f16611622565b5b600083013567ffffffffffffffff811115610f3557610f3461161d565b5b610f4185828601610e52565b92509250509250929050565b600060208284031215610f6357610f62611622565b5b600082013567ffffffffffffffff811115610f8157610f8061161d565b5b610f8d84828501610ea8565b91505092915050565b600060208284031215610fac57610fab611622565b5b6000610fba84828501610ed6565b91505092915050565b600060208284031215610fd957610fd8611622565b5b6000610fe784828501610eeb565b91505092915050565b6000806040838503121561100757611006611622565b5b600061101585828601610ed6565b925050602083013567ffffffffffffffff8111156110365761103561161d565b5b61104285828601610e24565b9150509250929050565b611055816113d1565b82525050565b611064816113e3565b82525050565b611073816113ef565b82525050565b6000611084826112eb565b61108e81856112f6565b935061109e818560208601611489565b6110a781611627565b840191505092915050565b6110bb81611468565b82525050565b60006110ce600083611307565b91506110d982611638565b600082019050919050565b6110ed8161140c565b82525050565b6110fc8161143a565b82525050565b61110b81611444565b82525050565b61111a81611454565b82525050565b600061112b826110c1565b9150819050919050565b600060208201905061114a600083018461104c565b92915050565b6000604082019050611165600083018561104c565b611172602083018461104c565b9392505050565b600060408201905061118e600083018561105b565b81810360208301526111a08184611079565b90509392505050565b600060a0820190506111be600083018861106a565b6111cb6020830187611111565b6111d860408301866110e4565b6111e56060830185611102565b6111f26080830184611102565b9695505050505050565b600060208201905061121160008301846110b2565b92915050565b600060208201905061122c60008301846110f3565b92915050565b600060608201905061124760008301866110f3565b61125460208301856110f3565b61126160408301846110f3565b949350505050565b6000611273611284565b905061127f82826114bc565b919050565b6000604051905090565b600067ffffffffffffffff8211156112a9576112a86115da565b5b602082029050602081019050919050565b600067ffffffffffffffff8211156112d5576112d46115da565b5b6112de82611627565b9050602081019050919050565b600081519050919050565b600082825260208201905092915050565b600081905092915050565b600061131d8261143a565b91506113288361143a565b9250826113385761133761154d565b5b828204905092915050565b600061134e8261143a565b91506113598361143a565b9250817fffffffffffffffffffffffffffffffffffffffffffffffffffffffffffffffff04831182151516156113925761139161151e565b5b828202905092915050565b60006113a88261143a565b91506113b38361143a565b9250828210156113c6576113c561151e565b5b828203905092915050565b60006113dc8261141a565b9050919050565b60008115159050919050565b6000819050919050565b60008190506114078261163b565b919050565b600061ffff82169050919050565b600073ffffffffffffffffffffffffffffffffffffffff82169050919050565b6000819050919050565b600063ffffffff82169050919050565b600067ffffffffffffffff82169050919050565b6000611473826113f9565b9050919050565b82818337600083830152505050565b60005b838110156114a757808201518184015260208101905061148c565b838111156114b6576000848401525b50505050565b6114c582611627565b810181811067ffffffffffffffff821117156114e4576114e36115da565b5b80604052505050565b60006114f88261143a565b91506115038361143a565b9250826115135761151261154d565b5b828206905092915050565b7f4e487b7100000000000000000000000000000000000000000000000000000000600052601160045260246000fd5b7f4e487b7100000000000000000000000000000000000000000000000000000000600052601260045260246000fd5b7f4e487b7100000000000000000000000000000000000000000000000000000000600052602160045260246000fd5b7f4e487b7100000000000000000000000000000000000000000000000000000000600052603260045260246000fd5b7f4e487b7100000000000000000000000000000000000000000000000000000000600052604160045260246000fd5b600080fd5b600080fd5b600080fd5b600080fd5b600080fd5b600080fd5b6000601f19601f8301169050919050565b50565b6002811061164c5761164b61157c565b5b50565b6116588161143a565b811461166357600080fd5b5056fea2646970667358221220947bd951641612c6666cb524375f44bf04f6cfd5b00585097f05f9b3907ddc1564736f6c63430008070033",
    "devdoc": {
        "author": "Vanga Labs",
        "details": "It implements Chainlink VRF V2 and Chainlink Keepers",
        "kind": "dev",
        "methods": {
            "checkUpkeep(bytes)": {
                "details": "This is the function that the Chainlink Keeper nodes call they look for `upkeepNeeded` to return True. the following should be true for this to return true: 1. The time interval has passed between Tiditada runs. 2. The Tiditada Raffle  is open. 3. The contract has funds. 4. The number of players should be >= 10 5. Implicity, your subscription is funded with LINK."
            }
        },
        "title": "Tiditada Raffle Contract",
        "version": 1
    },
    "userdoc": {
        "kind": "user",
        "methods": {},
        "notice": "This contract creates a decentralized, transparent and borderless Raffle Contract",
        "version": 1
    },
    "storageLayout": {
        "storage": [
            {
                "astId": 200,
                "contract": "contracts/Tiditada.sol:Tiditada",
                "label": "s_players",
                "offset": 0,
                "slot": "0",
                "type": "t_array(t_address_payable)dyn_storage"
            },
            {
                "astId": 227,
                "contract": "contracts/Tiditada.sol:Tiditada",
                "label": "s_tidiTadaWinner",
                "offset": 0,
                "slot": "1",
                "type": "t_address"
            },
            {
                "astId": 230,
                "contract": "contracts/Tiditada.sol:Tiditada",
                "label": "s_tidiTadaState",
                "offset": 20,
                "slot": "1",
                "type": "t_enum(TidiTadaState)195"
            },
            {
                "astId": 232,
                "contract": "contracts/Tiditada.sol:Tiditada",
                "label": "s_lastTimeStamp",
                "offset": 0,
                "slot": "2",
                "type": "t_uint256"
            }
        ],
        "types": {
            "t_address": {
                "encoding": "inplace",
                "label": "address",
                "numberOfBytes": "20"
            },
            "t_address_payable": {
                "encoding": "inplace",
                "label": "address payable",
                "numberOfBytes": "20"
            },
            "t_array(t_address_payable)dyn_storage": {
                "base": "t_address_payable",
                "encoding": "dynamic_array",
                "label": "address payable[]",
                "numberOfBytes": "32"
            },
            "t_enum(TidiTadaState)195": {
                "encoding": "inplace",
                "label": "enum Tiditada.TidiTadaState",
                "numberOfBytes": "1"
            },
            "t_uint256": {
                "encoding": "inplace",
                "label": "uint256",
                "numberOfBytes": "32"
            }
        }
    }
}