{
  "address": "0x040Cf86B4FdBBEF7a21cc0EBc6aC07Cf486E616F",
  "abi": [
    {
      "inputs": [
        {
          "internalType": "uint256",
          "name": "tidiTadaFee",
          "type": "uint256"
        },
        {
          "internalType": "address",
          "name": "advertsServerAndSubscription",
          "type": "address"
        },
        {
          "internalType": "address",
          "name": "vrfCoordinatorV2",
          "type": "address"
        },
        {
          "internalType": "bytes32",
          "name": "gasLane",
          "type": "bytes32"
        },
        {
          "internalType": "uint64",
          "name": "subscriptionId",
          "type": "uint64"
        },
        {
          "internalType": "uint32",
          "name": "callbackGasLimit",
          "type": "uint32"
        },
        {
          "internalType": "uint256",
          "name": "interval",
          "type": "uint256"
        }
      ],
      "stateMutability": "nonpayable",
      "type": "constructor"
    },
    {
      "inputs": [
        {
          "internalType": "address",
          "name": "have",
          "type": "address"
        },
        {
          "internalType": "address",
          "name": "want",
          "type": "address"
        }
      ],
      "name": "OnlyCoordinatorCanFulfill",
      "type": "error"
    },
    {
      "inputs": [],
      "name": "Tiditada__AdvertsServerAndSubscriptionTransferFailed",
      "type": "error"
    },
    {
      "inputs": [],
      "name": "Tiditada__InsufficientEntranceFee",
      "type": "error"
    },
    {
      "inputs": [],
      "name": "Tiditada__NotOpen",
      "type": "error"
    },
    {
      "inputs": [],
      "name": "Tiditada__TransferToWinnerFailed",
      "type": "error"
    },
    {
      "inputs": [
        {
          "internalType": "uint256",
          "name": "currentBalance",
          "type": "uint256"
        },
        {
          "internalType": "uint256",
          "name": "numPlayers",
          "type": "uint256"
        },
        {
          "internalType": "uint256",
          "name": "tidiTadaState",
          "type": "uint256"
        }
      ],
      "name": "Tiditada__UpkeepNotNeeded",
      "type": "error"
    },
    {
      "anonymous": false,
      "inputs": [
        {
          "indexed": true,
          "internalType": "address",
          "name": "advertsServerAndSubscripton",
          "type": "address"
        }
      ],
      "name": "AdvertsServerAndSubscriptionFunded",
      "type": "event"
    },
    {
      "anonymous": false,
      "inputs": [
        {
          "indexed": true,
          "internalType": "uint256",
          "name": "requestId",
          "type": "uint256"
        }
      ],
      "name": "RequestedTidiTadaWinner",
      "type": "event"
    },
    {
      "anonymous": false,
      "inputs": [
        {
          "indexed": true,
          "internalType": "address",
          "name": "player",
          "type": "address"
        }
      ],
      "name": "TidiTadaEntered",
      "type": "event"
    },
    {
      "anonymous": false,
      "inputs": [
        {
          "indexed": true,
          "internalType": "address",
          "name": "tidiTadaWinner",
          "type": "address"
        }
      ],
      "name": "TidiTadaWinnerPicked",
      "type": "event"
    },
    {
      "inputs": [
        {
          "internalType": "address payable",
          "name": "",
          "type": "address"
        }
      ],
      "name": "advertsServerAndSubscriptionFunded",
      "outputs": [],
      "stateMutability": "payable",
      "type": "function"
    },
    {
      "inputs": [
        {
          "internalType": "bytes",
          "name": "",
          "type": "bytes"
        }
      ],
      "name": "checkUpkeep",
      "outputs": [
        {
          "internalType": "bool",
          "name": "upkeepNeeded",
          "type": "bool"
        },
        {
          "internalType": "bytes",
          "name": "",
          "type": "bytes"
        }
      ],
      "stateMutability": "view",
      "type": "function"
    },
    {
      "inputs": [],
      "name": "enterTidiTada",
      "outputs": [],
      "stateMutability": "payable",
      "type": "function"
    },
    {
      "inputs": [],
      "name": "getContractBalance",
      "outputs": [
        {
          "internalType": "uint256",
          "name": "",
          "type": "uint256"
        }
      ],
      "stateMutability": "view",
      "type": "function"
    },
    {
      "inputs": [],
      "name": "getInterval",
      "outputs": [
        {
          "internalType": "uint256",
          "name": "",
          "type": "uint256"
        }
      ],
      "stateMutability": "view",
      "type": "function"
    },
    {
      "inputs": [],
      "name": "getLastTimeStamp",
      "outputs": [
        {
          "internalType": "uint256",
          "name": "",
          "type": "uint256"
        }
      ],
      "stateMutability": "view",
      "type": "function"
    },
    {
      "inputs": [],
      "name": "getNumWords",
      "outputs": [
        {
          "internalType": "uint256",
          "name": "",
          "type": "uint256"
        }
      ],
      "stateMutability": "pure",
      "type": "function"
    },
    {
      "inputs": [],
      "name": "getNumberOfPlayers",
      "outputs": [
        {
          "internalType": "uint256",
          "name": "",
          "type": "uint256"
        }
      ],
      "stateMutability": "view",
      "type": "function"
    },
    {
      "inputs": [
        {
          "internalType": "uint256",
          "name": "index",
          "type": "uint256"
        }
      ],
      "name": "getPlayer",
      "outputs": [
        {
          "internalType": "address",
          "name": "",
          "type": "address"
        }
      ],
      "stateMutability": "view",
      "type": "function"
    },
    {
      "inputs": [],
      "name": "getRequestConfirmations",
      "outputs": [
        {
          "internalType": "uint256",
          "name": "",
          "type": "uint256"
        }
      ],
      "stateMutability": "pure",
      "type": "function"
    },
    {
      "inputs": [],
      "name": "getTidiTadaFee",
      "outputs": [
        {
          "internalType": "uint256",
          "name": "",
          "type": "uint256"
        }
      ],
      "stateMutability": "view",
      "type": "function"
    },
    {
      "inputs": [],
      "name": "getTidiTadaState",
      "outputs": [
        {
          "internalType": "enum Tiditada.TidiTadaState",
          "name": "",
          "type": "uint8"
        }
      ],
      "stateMutability": "view",
      "type": "function"
    },
    {
      "inputs": [],
      "name": "getTidiTadaWinner",
      "outputs": [
        {
          "internalType": "address",
          "name": "",
          "type": "address"
        }
      ],
      "stateMutability": "view",
      "type": "function"
    },
    {
      "inputs": [
        {
          "internalType": "bytes",
          "name": "",
          "type": "bytes"
        }
      ],
      "name": "performUpkeep",
      "outputs": [],
      "stateMutability": "nonpayable",
      "type": "function"
    },
    {
      "inputs": [
        {
          "internalType": "uint256",
          "name": "requestId",
          "type": "uint256"
        },
        {
          "internalType": "uint256[]",
          "name": "randomWords",
          "type": "uint256[]"
        }
      ],
      "name": "rawFulfillRandomWords",
      "outputs": [],
      "stateMutability": "nonpayable",
      "type": "function"
    }
  ],
  "transactionHash": "0x9b9a29152261955b3afc5384c5fe1b117f374426dd307463c49af2e607a1ff24",
  "args": [
    "10000000000000000",
    "0x5FbDB2315678afecb367f032d93F642f64180aa3",
    "0x2Ca8E0C643bDe4C2E08ab1fA0da3401AdAD7734D",
    "0x79d3d8832d904592c0bf9818b621522c988bb8b0c05cdc3b15aea1b6e8db0c15",
    "333",
    "500000",
    "10"
  ],
  "numDeployments": 1,
  "solcInputHash": "5d509593e583a7690adad004474eea1a",
  "bytecode": "0x6101806040523480156200001257600080fd5b5060405162001b8738038062001b878339818101604052810190620000389190620001e6565b848073ffffffffffffffffffffffffffffffffffffffff1660808173ffffffffffffffffffffffffffffffffffffffff1660601b81525050508660a081815250508573ffffffffffffffffffffffffffffffffffffffff166101408173ffffffffffffffffffffffffffffffffffffffff1660601b815250508473ffffffffffffffffffffffffffffffffffffffff1660c08173ffffffffffffffffffffffffffffffffffffffff1660601b815250508360e081815250508267ffffffffffffffff166101008167ffffffffffffffff1660c01b815250508163ffffffff166101208163ffffffff1660e01b815250508061016081815250506000600160146101000a81548160ff021916908360018111156200015a576200015962000305565b5b02179055504260028190555050505050505050620003bb565b600081519050620001848162000339565b92915050565b6000815190506200019b8162000353565b92915050565b600081519050620001b2816200036d565b92915050565b600081519050620001c98162000387565b92915050565b600081519050620001e081620003a1565b92915050565b600080600080600080600060e0888a03121562000208576200020762000334565b5b6000620002188a828b01620001a1565b97505060206200022b8a828b0162000173565b96505060406200023e8a828b0162000173565b9550506060620002518a828b016200018a565b9450506080620002648a828b01620001cf565b93505060a0620002778a828b01620001b8565b92505060c06200028a8a828b01620001a1565b91505092959891949750929550565b6000620002a682620002b7565b9050919050565b6000819050919050565b600073ffffffffffffffffffffffffffffffffffffffff82169050919050565b6000819050919050565b600063ffffffff82169050919050565b600067ffffffffffffffff82169050919050565b7f4e487b7100000000000000000000000000000000000000000000000000000000600052602160045260246000fd5b600080fd5b620003448162000299565b81146200035057600080fd5b50565b6200035e81620002ad565b81146200036a57600080fd5b50565b6200037881620002d7565b81146200038457600080fd5b50565b6200039281620002e1565b81146200039e57600080fd5b50565b620003ac81620002f1565b8114620003b857600080fd5b50565b60805160601c60a05160c05160601c60e0516101005160c01c6101205160e01c6101405160601c6101605161173b6200044c600039600081816107d5015261088701526000818161065f0152610720015260006105840152600061056101526000610540015260006105040152600081816108b70152610a8601526000818161038f01526103e3015261173b6000f3fe6080604052600436106100e85760003560e01c80636f9fb98a1161008a578063e55ae4e811610059578063e55ae4e8146102a5578063ebb5a317146102e2578063ee2f78111461030d578063fd6673f514610338576100e8565b80636f9fb98a1461021a57806391ad27b414610245578063c1c244e814610270578063c2fa3fdd1461029b576100e8565b806353a2c19a116100c657806353a2c19a1461016a57806355d656f5146101955780635f1b0fd8146101b15780636e04ff0d146101dc576100e8565b8063033eeabb146100ed5780631fe543e3146101185780634585e33b14610141575b600080fd5b3480156100f957600080fd5b50610102610363565b60405161010f91906111ab565b60405180910390f35b34801561012457600080fd5b5061013f600480360381019061013a9190611066565b61038d565b005b34801561014d57600080fd5b5061016860048036038101906101639190610f76565b61044d565b005b34801561017657600080fd5b5061017f61064c565b60405161018c919061128d565b60405180910390f35b6101af60048036038101906101aa9190610f49565b61065b565b005b3480156101bd57600080fd5b506101c6610785565b6040516101d3919061128d565b60405180910390f35b3480156101e857600080fd5b5061020360048036038101906101fe9190610fc3565b610792565b6040516102119291906111ef565b60405180910390f35b34801561022657600080fd5b5061022f61087b565b60405161023c919061128d565b60405180910390f35b34801561025157600080fd5b5061025a610883565b604051610267919061128d565b60405180910390f35b34801561027c57600080fd5b506102856108ab565b604051610292919061128d565b60405180910390f35b6102a36108b5565b005b3480156102b157600080fd5b506102cc60048036038101906102c7919061100c565b610a24565b6040516102d991906111ab565b60405180910390f35b3480156102ee57600080fd5b506102f7610a6b565b6040516103049190611272565b60405180910390f35b34801561031957600080fd5b50610322610a82565b60405161032f919061128d565b60405180910390f35b34801561034457600080fd5b5061034d610aaa565b60405161035a919061128d565b60405180910390f35b6000600160009054906101000a900473ffffffffffffffffffffffffffffffffffffffff16905090565b7f000000000000000000000000000000000000000000000000000000000000000073ffffffffffffffffffffffffffffffffffffffff163373ffffffffffffffffffffffffffffffffffffffff161461043f57337f00000000000000000000000000000000000000000000000000000000000000006040517f1cf993f40000000000000000000000000000000000000000000000000000000081526004016104369291906111c6565b60405180910390fd5b6104498282610ab6565b5050565b600061046760405180602001604052806000815250610792565b509050806104d65747600080549050600160149054906101000a900460ff16600181111561049857610497611604565b5b6040517f9546afe10000000000000000000000000000000000000000000000000000000081526004016104cd939291906112a8565b60405180910390fd5b60018060146101000a81548160ff021916908360018111156104fb576104fa611604565b5b021790555060007f000000000000000000000000000000000000000000000000000000000000000073ffffffffffffffffffffffffffffffffffffffff16635d3b1d307f00000000000000000000000000000000000000000000000000000000000000007f000000000000000000000000000000000000000000000000000000000000000060037f000000000000000000000000000000000000000000000000000000000000000060016040518663ffffffff1660e01b81526004016105c595949392919061121f565b602060405180830381600087803b1580156105df57600080fd5b505af11580156105f3573d6000803e3d6000fd5b505050506040513d601f19601f820116820180604052508101906106179190611039565b9050807f53b5c03dd4cbfb3bf7591428b5e0a7ae0b7d62c33bb2b23bbc35f516711fc4bc60405160405180910390a250505050565b6000600163ffffffff16905090565b60007f000000000000000000000000000000000000000000000000000000000000000073ffffffffffffffffffffffffffffffffffffffff16476040516106a190611196565b60006040518083038185875af1925050503d80600081146106de576040519150601f19603f3d011682016040523d82523d6000602084013e6106e3565b606091505b505090508061071e576040517f5a11556800000000000000000000000000000000000000000000000000000000815260040160405180910390fd5b7f000000000000000000000000000000000000000000000000000000000000000073ffffffffffffffffffffffffffffffffffffffff167f6a4787cec966a624b4aafa4021e0af934a2cd24c87b7f2f23489d2649ad6eb0060405160405180910390a25050565b6000600361ffff16905090565b600060606000600160149054906101000a900460ff1660018111156107ba576107b9611604565b5b600060018111156107ce576107cd611604565b5b14905060007f0000000000000000000000000000000000000000000000000000000000000000600254426108029190611413565b11905060006009600080549050119050600080471190508280156108235750835b801561082c5750805b80156108355750815b9550856040518060400160405280600381526020017f30783000000000000000000000000000000000000000000000000000000000008152509550955050505050915091565b600047905090565b60007f0000000000000000000000000000000000000000000000000000000000000000905090565b6000600254905090565b7f000000000000000000000000000000000000000000000000000000000000000034101561090f576040517f1f6d941100000000000000000000000000000000000000000000000000000000815260040160405180910390fd5b6000600181111561092357610922611604565b5b600160149054906101000a900460ff16600181111561094557610944611604565b5b1461097c576040517fdc59d58b00000000000000000000000000000000000000000000000000000000815260040160405180910390fd5b6000339080600181540180825580915050600190039060005260206000200160009091909190916101000a81548173ffffffffffffffffffffffffffffffffffffffff021916908373ffffffffffffffffffffffffffffffffffffffff1602179055503373ffffffffffffffffffffffffffffffffffffffff167fae5cc53056904578d0e9a0d41fbfc5c7c7703be3394c3938279bc04229dcf97560405160405180910390a2565b6000808281548110610a3957610a38611633565b5b9060005260206000200160009054906101000a900473ffffffffffffffffffffffffffffffffffffffff169050919050565b6000600160149054906101000a900460ff16905090565b60007f0000000000000000000000000000000000000000000000000000000000000000905090565b60008080549050905090565b6000808054905082600081518110610ad157610ad0611633565b5b6020026020010151610ae39190611575565b90506000808281548110610afa57610af9611633565b5b9060005260206000200160009054906101000a900473ffffffffffffffffffffffffffffffffffffffff16905080600160006101000a81548173ffffffffffffffffffffffffffffffffffffffff021916908373ffffffffffffffffffffffffffffffffffffffff160217905550600067ffffffffffffffff811115610b8357610b82611662565b5b604051908082528060200260200182016040528015610bb15781602001602082028036833780820191505090505b5060009080519060200190610bc7929190610cff565b506000600160146101000a81548160ff02191690836001811115610bee57610bed611604565b5b02179055504260028190555060008173ffffffffffffffffffffffffffffffffffffffff166064605647610c2291906113b9565b610c2c9190611388565b604051610c3890611196565b60006040518083038185875af1925050503d8060008114610c75576040519150601f19603f3d011682016040523d82523d6000602084013e610c7a565b606091505b5050905080610cb5576040517f27d7ff6100000000000000000000000000000000000000000000000000000000815260040160405180910390fd5b8173ffffffffffffffffffffffffffffffffffffffff167fdb013674fee72403800a396aadc0cc3d085bedab5b36d0095bd379b5f13a361360405160405180910390a25050505050565b828054828255906000526020600020908101928215610d78579160200282015b82811115610d775782518260006101000a81548173ffffffffffffffffffffffffffffffffffffffff021916908373ffffffffffffffffffffffffffffffffffffffff16021790555091602001919060010190610d1f565b5b509050610d859190610d89565b5090565b5b80821115610da2576000816000905550600101610d8a565b5090565b6000610db9610db484611304565b6112df565b90508083825260208201905082856020860282011115610ddc57610ddb61169b565b5b60005b85811015610e0c5781610df28882610f1f565b845260208401935060208301925050600181019050610ddf565b5050509392505050565b6000610e29610e2484611330565b6112df565b905082815260208101848484011115610e4557610e446116a0565b5b610e50848285611502565b509392505050565b600081359050610e67816116d7565b92915050565b600082601f830112610e8257610e81611696565b5b8135610e92848260208601610da6565b91505092915050565b60008083601f840112610eb157610eb0611696565b5b8235905067ffffffffffffffff811115610ece57610ecd611691565b5b602083019150836001820283011115610eea57610ee961169b565b5b9250929050565b600082601f830112610f0657610f05611696565b5b8135610f16848260208601610e16565b91505092915050565b600081359050610f2e816116ee565b92915050565b600081519050610f43816116ee565b92915050565b600060208284031215610f5f57610f5e6116aa565b5b6000610f6d84828501610e58565b91505092915050565b60008060208385031215610f8d57610f8c6116aa565b5b600083013567ffffffffffffffff811115610fab57610faa6116a5565b5b610fb785828601610e9b565b92509250509250929050565b600060208284031215610fd957610fd86116aa565b5b600082013567ffffffffffffffff811115610ff757610ff66116a5565b5b61100384828501610ef1565b91505092915050565b600060208284031215611022576110216116aa565b5b600061103084828501610f1f565b91505092915050565b60006020828403121561104f5761104e6116aa565b5b600061105d84828501610f34565b91505092915050565b6000806040838503121561107d5761107c6116aa565b5b600061108b85828601610f1f565b925050602083013567ffffffffffffffff8111156110ac576110ab6116a5565b5b6110b885828601610e6d565b9150509250929050565b6110cb81611447565b82525050565b6110da8161146b565b82525050565b6110e981611477565b82525050565b60006110fa82611361565b611104818561136c565b9350611114818560208601611511565b61111d816116af565b840191505092915050565b611131816114f0565b82525050565b600061114460008361137d565b915061114f826116c0565b600082019050919050565b61116381611494565b82525050565b611172816114c2565b82525050565b611181816114cc565b82525050565b611190816114dc565b82525050565b60006111a182611137565b9150819050919050565b60006020820190506111c060008301846110c2565b92915050565b60006040820190506111db60008301856110c2565b6111e860208301846110c2565b9392505050565b600060408201905061120460008301856110d1565b818103602083015261121681846110ef565b90509392505050565b600060a08201905061123460008301886110e0565b6112416020830187611187565b61124e604083018661115a565b61125b6060830185611178565b6112686080830184611178565b9695505050505050565b60006020820190506112876000830184611128565b92915050565b60006020820190506112a26000830184611169565b92915050565b60006060820190506112bd6000830186611169565b6112ca6020830185611169565b6112d76040830184611169565b949350505050565b60006112e96112fa565b90506112f58282611544565b919050565b6000604051905090565b600067ffffffffffffffff82111561131f5761131e611662565b5b602082029050602081019050919050565b600067ffffffffffffffff82111561134b5761134a611662565b5b611354826116af565b9050602081019050919050565b600081519050919050565b600082825260208201905092915050565b600081905092915050565b6000611393826114c2565b915061139e836114c2565b9250826113ae576113ad6115d5565b5b828204905092915050565b60006113c4826114c2565b91506113cf836114c2565b9250817fffffffffffffffffffffffffffffffffffffffffffffffffffffffffffffffff0483118215151615611408576114076115a6565b5b828202905092915050565b600061141e826114c2565b9150611429836114c2565b92508282101561143c5761143b6115a6565b5b828203905092915050565b6000611452826114a2565b9050919050565b6000611464826114a2565b9050919050565b60008115159050919050565b6000819050919050565b600081905061148f826116c3565b919050565b600061ffff82169050919050565b600073ffffffffffffffffffffffffffffffffffffffff82169050919050565b6000819050919050565b600063ffffffff82169050919050565b600067ffffffffffffffff82169050919050565b60006114fb82611481565b9050919050565b82818337600083830152505050565b60005b8381101561152f578082015181840152602081019050611514565b8381111561153e576000848401525b50505050565b61154d826116af565b810181811067ffffffffffffffff8211171561156c5761156b611662565b5b80604052505050565b6000611580826114c2565b915061158b836114c2565b92508261159b5761159a6115d5565b5b828206905092915050565b7f4e487b7100000000000000000000000000000000000000000000000000000000600052601160045260246000fd5b7f4e487b7100000000000000000000000000000000000000000000000000000000600052601260045260246000fd5b7f4e487b7100000000000000000000000000000000000000000000000000000000600052602160045260246000fd5b7f4e487b7100000000000000000000000000000000000000000000000000000000600052603260045260246000fd5b7f4e487b7100000000000000000000000000000000000000000000000000000000600052604160045260246000fd5b600080fd5b600080fd5b600080fd5b600080fd5b600080fd5b600080fd5b6000601f19601f8301169050919050565b50565b600281106116d4576116d3611604565b5b50565b6116e081611459565b81146116eb57600080fd5b50565b6116f7816114c2565b811461170257600080fd5b5056fea2646970667358221220aab5e552c614d832fe5483d31afb64584c1054465120de8aad2b176305ae3b7664736f6c63430008070033",
  "devdoc": {
    "author": "Vanga Labs",
    "details": "It implements Chainlink VRF V2 and Chainlink Keepers",
    "kind": "dev",
    "methods": {
      "checkUpkeep(bytes)": {
        "details": "This is the function that the Chainlink Keeper nodes call they look for `upkeepNeeded` to return True. the following should be true for this to return true: 1. The time interval has passed between Tiditada runs. 2. The Tiditada Raffle  is open. 3. The contract has funds. 4. The number of players should be >= 10 5. Implicity, your subscription is funded with LINK."
      }
    },
    "title": "Tiditada Raffle Contract",
    "version": 1
  },
  "userdoc": {
    "kind": "user",
    "methods": {},
    "notice": "This contract creates a decentralized, transparent and borderless Raffle Contract",
    "version": 1
  },
  "storageLayout": {
    "storage": [
      {
        "astId": 200,
        "contract": "contracts/Tiditada.sol:Tiditada",
        "label": "s_players",
        "offset": 0,
        "slot": "0",
        "type": "t_array(t_address_payable)dyn_storage"
      },
      {
        "astId": 225,
        "contract": "contracts/Tiditada.sol:Tiditada",
        "label": "s_tidiTadaWinner",
        "offset": 0,
        "slot": "1",
        "type": "t_address"
      },
      {
        "astId": 228,
        "contract": "contracts/Tiditada.sol:Tiditada",
        "label": "s_tidiTadaState",
        "offset": 20,
        "slot": "1",
        "type": "t_enum(TidiTadaState)195"
      },
      {
        "astId": 230,
        "contract": "contracts/Tiditada.sol:Tiditada",
        "label": "s_lastTimeStamp",
        "offset": 0,
        "slot": "2",
        "type": "t_uint256"
      }
    ],
    "types": {
      "t_address": {
        "encoding": "inplace",
        "label": "address",
        "numberOfBytes": "20"
      },
      "t_address_payable": {
        "encoding": "inplace",
        "label": "address payable",
        "numberOfBytes": "20"
      },
      "t_array(t_address_payable)dyn_storage": {
        "base": "t_address_payable",
        "encoding": "dynamic_array",
        "label": "address payable[]",
        "numberOfBytes": "32"
      },
      "t_enum(TidiTadaState)195": {
        "encoding": "inplace",
        "label": "enum Tiditada.TidiTadaState",
        "numberOfBytes": "1"
      },
      "t_uint256": {
        "encoding": "inplace",
        "label": "uint256",
        "numberOfBytes": "32"
      }
    }
  }
}